{
    "contractName": "KYCValidations",
    "abi": [
        {
            "constant": false,
            "inputs": [],
            "name": "renounceOwnership",
            "outputs": [],
            "payable": false,
            "stateMutability": "nonpayable",
            "type": "function"
        },
        {
            "constant": true,
            "inputs": [],
            "name": "owner",
            "outputs": [
                {
                    "name": "",
                    "type": "address"
                }
            ],
            "payable": false,
            "stateMutability": "view",
            "type": "function"
        },
        {
            "constant": false,
            "inputs": [
                {
                    "name": "_newOwner",
                    "type": "address"
                }
            ],
            "name": "transferOwnership",
            "outputs": [],
            "payable": false,
            "stateMutability": "nonpayable",
            "type": "function"
        },
        {
            "anonymous": false,
            "inputs": [
                {
                    "indexed": false,
                    "name": "ownedAddress",
                    "type": "address"
                },
                {
                    "indexed": false,
                    "name": "idHash",
                    "type": "bytes32"
                }
            ],
            "name": "OwnershipProcessStarted",
            "type": "event"
        },
        {
            "anonymous": false,
            "inputs": [
                {
                    "indexed": false,
                    "name": "ownedAddress",
                    "type": "address"
                },
                {
                    "indexed": false,
                    "name": "idHash",
                    "type": "bytes32"
                }
            ],
            "name": "OwnershipEstablished",
            "type": "event"
        },
        {
            "anonymous": false,
            "inputs": [
                {
                    "indexed": true,
                    "name": "previousOwner",
                    "type": "address"
                }
            ],
            "name": "OwnershipRenounced",
            "type": "event"
        },
        {
            "anonymous": false,
            "inputs": [
                {
                    "indexed": true,
                    "name": "previousOwner",
                    "type": "address"
                },
                {
                    "indexed": true,
                    "name": "newOwner",
                    "type": "address"
                }
            ],
            "name": "OwnershipTransferred",
            "type": "event"
        },
        {
            "constant": false,
            "inputs": [
                {
                    "name": "ownedAddress",
                    "type": "address"
                },
                {
                    "name": "idHash",
                    "type": "bytes32"
                }
            ],
            "name": "addOwnership",
            "outputs": [],
            "payable": false,
            "stateMutability": "nonpayable",
            "type": "function"
        },
        {
            "constant": false,
            "inputs": [
                {
                    "name": "idHash",
                    "type": "bytes32"
                }
            ],
            "name": "confirmOwnership",
            "outputs": [],
            "payable": false,
            "stateMutability": "nonpayable",
            "type": "function"
        },
        {
            "constant": true,
            "inputs": [
                {
                    "name": "ownedAddress",
                    "type": "address"
                },
                {
                    "name": "idHash",
                    "type": "bytes32"
                }
            ],
            "name": "checkOwnership",
            "outputs": [
                {
                    "name": "",
                    "type": "bool"
                }
            ],
            "payable": false,
            "stateMutability": "view",
            "type": "function"
        },
        {
            "constant": true,
            "inputs": [
                {
                    "name": "ownedAddress",
                    "type": "address"
                },
                {
                    "name": "idHash",
                    "type": "bytes32"
                }
            ],
            "name": "checkPendingOwnership",
            "outputs": [
                {
                    "name": "",
                    "type": "bool"
                }
            ],
            "payable": false,
            "stateMutability": "view",
            "type": "function"
        }
    ],
    "bytecode": "0x6080604052336000806101000a81548173ffffffffffffffffffffffffffffffffffffffff021916908373ffffffffffffffffffffffffffffffffffffffff160217905550610983806100536000396000f300608060405260043610610083576000357c0100000000000000000000000000000000000000000000000000000000900463ffffffff168063036d307414610088578063715018a6146100d95780637ff0e872146100f05780638da5cb5b14610121578063a41faeae14610178578063c9c1b6bc146101e1578063f2fde38b1461024a575b600080fd5b34801561009457600080fd5b506100d7600480360381019080803573ffffffffffffffffffffffffffffffffffffffff169060200190929190803560001916906020019092919050505061028d565b005b3480156100e557600080fd5b506100ee610451565b005b3480156100fc57600080fd5b5061011f6004803603810190808035600019169060200190929190505050610553565b005b34801561012d57600080fd5b50610136610707565b604051808273ffffffffffffffffffffffffffffffffffffffff1673ffffffffffffffffffffffffffffffffffffffff16815260200191505060405180910390f35b34801561018457600080fd5b506101c7600480360381019080803573ffffffffffffffffffffffffffffffffffffffff169060200190929190803560001916906020019092919050505061072c565b604051808215151515815260200191505060405180910390f35b3480156101ed57600080fd5b50610230600480360381019080803573ffffffffffffffffffffffffffffffffffffffff1690602001909291908035600019169060200190929190505050610791565b604051808215151515815260200191505060405180910390f35b34801561025657600080fd5b5061028b600480360381019080803573ffffffffffffffffffffffffffffffffffffffff1690602001909291905050506107f6565b005b6000809054906101000a900473ffffffffffffffffffffffffffffffffffffffff1673ffffffffffffffffffffffffffffffffffffffff163373ffffffffffffffffffffffffffffffffffffffff161415156102e857600080fd5b6000600102600260008473ffffffffffffffffffffffffffffffffffffffff1673ffffffffffffffffffffffffffffffffffffffff168152602001908152602001600020546000191614151561033d57600080fd5b6000600102600160008473ffffffffffffffffffffffffffffffffffffffff1673ffffffffffffffffffffffffffffffffffffffff168152602001908152602001600020546000191614151561039257600080fd5b80600160008473ffffffffffffffffffffffffffffffffffffffff1673ffffffffffffffffffffffffffffffffffffffff16815260200190815260200160002081600019169055507fc489d2602d8aa633208eca274f9a8d213ae5dcbacde2c5f8b5a97971b09517dd8282604051808373ffffffffffffffffffffffffffffffffffffffff1673ffffffffffffffffffffffffffffffffffffffff16815260200182600019166000191681526020019250505060405180910390a15050565b6000809054906101000a900473ffffffffffffffffffffffffffffffffffffffff1673ffffffffffffffffffffffffffffffffffffffff163373ffffffffffffffffffffffffffffffffffffffff161415156104ac57600080fd5b6000809054906101000a900473ffffffffffffffffffffffffffffffffffffffff1673ffffffffffffffffffffffffffffffffffffffff167ff8df31144d9c2f0f6b59d69b8b98abd5459d07f2742c4df920b25aae33c6482060405160405180910390a260008060006101000a81548173ffffffffffffffffffffffffffffffffffffffff021916908373ffffffffffffffffffffffffffffffffffffffff160217905550565b6000600102600260003373ffffffffffffffffffffffffffffffffffffffff1673ffffffffffffffffffffffffffffffffffffffff16815260200190815260200160002054600019161415156105a857600080fd5b8060001916600160003373ffffffffffffffffffffffffffffffffffffffff1673ffffffffffffffffffffffffffffffffffffffff16815260200190815260200160002054600019161415156105fd57600080fd5b6000600102600160003373ffffffffffffffffffffffffffffffffffffffff1673ffffffffffffffffffffffffffffffffffffffff168152602001908152602001600020816000191690555080600260003373ffffffffffffffffffffffffffffffffffffffff1673ffffffffffffffffffffffffffffffffffffffff16815260200190815260200160002081600019169055507f018508ba021a05e14cc176033b5ddcb38411cca484b60ab9f797f8469b90f0153382604051808373ffffffffffffffffffffffffffffffffffffffff1673ffffffffffffffffffffffffffffffffffffffff16815260200182600019166000191681526020019250505060405180910390a150565b6000809054906101000a900473ffffffffffffffffffffffffffffffffffffffff1681565b60008160001916600260008573ffffffffffffffffffffffffffffffffffffffff1673ffffffffffffffffffffffffffffffffffffffff16815260200190815260200160002054600019161415610786576001905061078b565b600090505b92915050565b60008160001916600160008573ffffffffffffffffffffffffffffffffffffffff1673ffffffffffffffffffffffffffffffffffffffff168152602001908152602001600020546000191614156107eb57600190506107f0565b600090505b92915050565b6000809054906101000a900473ffffffffffffffffffffffffffffffffffffffff1673ffffffffffffffffffffffffffffffffffffffff163373ffffffffffffffffffffffffffffffffffffffff1614151561085157600080fd5b61085a8161085d565b50565b600073ffffffffffffffffffffffffffffffffffffffff168173ffffffffffffffffffffffffffffffffffffffff161415151561089957600080fd5b8073ffffffffffffffffffffffffffffffffffffffff166000809054906101000a900473ffffffffffffffffffffffffffffffffffffffff1673ffffffffffffffffffffffffffffffffffffffff167f8be0079c531659141344cd1fd0a4f28419497f9722a3daafe3b4186f6b6457e060405160405180910390a3806000806101000a81548173ffffffffffffffffffffffffffffffffffffffff021916908373ffffffffffffffffffffffffffffffffffffffff160217905550505600a165627a7a7230582021aba3ce8681de4ba7f42aafac13ad485b8373f438b0a17e28f8e0c3d72145230029",
    "source": "pragma solidity ^0.4.23;\n\nimport \"../zeppelin-solidity/contracts/ownership/Ownable.sol\";\n\n\ncontract KYCValidations is Ownable {\n\n    mapping(address => bytes32) pendingOwnerships;\n    mapping(address => bytes32) ownerships;\n\n    event OwnershipProcessStarted(address ownedAddress, bytes32 idHash);\n    event OwnershipEstablished(address ownedAddress, bytes32 idHash);\n\n\n    function addOwnership(address ownedAddress, bytes32 idHash) public onlyOwner {\n        require(ownerships[ownedAddress] == 0);\n        require(pendingOwnerships[ownedAddress] == 0);\n        pendingOwnerships[ownedAddress] = idHash;\n        emit OwnershipProcessStarted(ownedAddress, idHash);\n    }\n\n    function confirmOwnership(bytes32 idHash) public {\n        require(ownerships[msg.sender] == 0);\n        require(pendingOwnerships[msg.sender] == idHash);\n        pendingOwnerships[msg.sender] = 0;\n        ownerships[msg.sender] = idHash;\n        emit OwnershipEstablished(msg.sender, idHash);\n    }\n\n    function checkOwnership(address ownedAddress, bytes32 idHash) public view returns (bool) {\n        if (ownerships[ownedAddress] == idHash) {\n            return true;\n        }\n        return false;\n    }\n\n    function checkPendingOwnership(address ownedAddress, bytes32 idHash) public view returns (bool) {\n        if (pendingOwnerships[ownedAddress] == idHash) {\n            return true;\n        }\n        return false;\n    }\n}",
    "sourcePath": "/Users/kuba/Workspace/blockey-smart/contracts/KYCValidations.sol",
    "compiler": {
        "name": "solc",
        "version": "0.4.23+commit.124ca40d.Emscripten.clang"
    },
    "schemaVersion": "2.0.0",
    "updatedAt": "2018-06-16T20:55:18.090Z"
}