{
    "contractName": "KYCValidations",
    "abi": [
        {
            "constant": true,
            "inputs": [],
            "name": "owner",
            "outputs": [
                {
                    "name": "",
                    "type": "address"
                }
            ],
            "payable": false,
            "stateMutability": "view",
            "type": "function"
        },
        {
            "constant": false,
            "inputs": [
                {
                    "name": "newOwner",
                    "type": "address"
                }
            ],
            "name": "transferOwnership",
            "outputs": [],
            "payable": false,
            "stateMutability": "nonpayable",
            "type": "function"
        },
        {
            "anonymous": false,
            "inputs": [
                {
                    "indexed": false,
                    "name": "ownedAddress",
                    "type": "address"
                },
                {
                    "indexed": false,
                    "name": "idHash",
                    "type": "bytes32"
                }
            ],
            "name": "OwnershipProcessStarted",
            "type": "event"
        },
        {
            "anonymous": false,
            "inputs": [
                {
                    "indexed": false,
                    "name": "ownedAddress",
                    "type": "address"
                },
                {
                    "indexed": false,
                    "name": "idHash",
                    "type": "bytes32"
                }
            ],
            "name": "OwnershipEstablished",
            "type": "event"
        },
        {
            "anonymous": false,
            "inputs": [
                {
                    "indexed": true,
                    "name": "previousOwner",
                    "type": "address"
                },
                {
                    "indexed": true,
                    "name": "newOwner",
                    "type": "address"
                }
            ],
            "name": "OwnershipTransferred",
            "type": "event"
        },
        {
            "constant": false,
            "inputs": [
                {
                    "name": "ownedAddress",
                    "type": "address"
                },
                {
                    "name": "idHash",
                    "type": "bytes32"
                }
            ],
            "name": "addPendingOwnership",
            "outputs": [],
            "payable": false,
            "stateMutability": "nonpayable",
            "type": "function"
        },
        {
            "constant": false,
            "inputs": [
                {
                    "name": "idHash",
                    "type": "bytes32"
                }
            ],
            "name": "confirmOwnership",
            "outputs": [],
            "payable": false,
            "stateMutability": "nonpayable",
            "type": "function"
        },
        {
            "constant": true,
            "inputs": [
                {
                    "name": "ownedAddress",
                    "type": "address"
                },
                {
                    "name": "idHash",
                    "type": "bytes32"
                }
            ],
            "name": "checkOwnership",
            "outputs": [
                {
                    "name": "",
                    "type": "bool"
                }
            ],
            "payable": false,
            "stateMutability": "view",
            "type": "function"
        },
        {
            "constant": true,
            "inputs": [
                {
                    "name": "ownedAddress",
                    "type": "address"
                },
                {
                    "name": "idHash",
                    "type": "bytes32"
                }
            ],
            "name": "checkPendingOwnership",
            "outputs": [
                {
                    "name": "",
                    "type": "bool"
                }
            ],
            "payable": false,
            "stateMutability": "view",
            "type": "function"
        }
    ],
    "bytecode": "0x6060604052336000806101000a81548173ffffffffffffffffffffffffffffffffffffffff021916908373ffffffffffffffffffffffffffffffffffffffff160217905550610726806100536000396000f300606060405260043610610078576000357c0100000000000000000000000000000000000000000000000000000000900463ffffffff16806350322f331461007d5780637ff0e872146100c35780638da5cb5b146100ea578063a41faeae1461013f578063c9c1b6bc1461019d578063f2fde38b146101fb575b600080fd5b341561008857600080fd5b6100c1600480803573ffffffffffffffffffffffffffffffffffffffff1690602001909190803560001916906020019091905050610234565b005b34156100ce57600080fd5b6100e86004808035600019169060200190919050506103a3565b005b34156100f557600080fd5b6100fd6104b6565b604051808273ffffffffffffffffffffffffffffffffffffffff1673ffffffffffffffffffffffffffffffffffffffff16815260200191505060405180910390f35b341561014a57600080fd5b610183600480803573ffffffffffffffffffffffffffffffffffffffff16906020019091908035600019169060200190919050506104db565b604051808215151515815260200191505060405180910390f35b34156101a857600080fd5b6101e1600480803573ffffffffffffffffffffffffffffffffffffffff1690602001909190803560001916906020019091905050610540565b604051808215151515815260200191505060405180910390f35b341561020657600080fd5b610232600480803573ffffffffffffffffffffffffffffffffffffffff169060200190919050506105a5565b005b6000809054906101000a900473ffffffffffffffffffffffffffffffffffffffff1673ffffffffffffffffffffffffffffffffffffffff163373ffffffffffffffffffffffffffffffffffffffff1614151561028f57600080fd5b6000600102600160008473ffffffffffffffffffffffffffffffffffffffff1673ffffffffffffffffffffffffffffffffffffffff16815260200190815260200160002054600019161415156102e457600080fd5b80600160008473ffffffffffffffffffffffffffffffffffffffff1673ffffffffffffffffffffffffffffffffffffffff16815260200190815260200160002081600019169055507fc489d2602d8aa633208eca274f9a8d213ae5dcbacde2c5f8b5a97971b09517dd8282604051808373ffffffffffffffffffffffffffffffffffffffff1673ffffffffffffffffffffffffffffffffffffffff16815260200182600019166000191681526020019250505060405180910390a15050565b8060001916600160003373ffffffffffffffffffffffffffffffffffffffff1673ffffffffffffffffffffffffffffffffffffffff16815260200190815260200160002054600019161415156103f857600080fd5b80600260003373ffffffffffffffffffffffffffffffffffffffff1673ffffffffffffffffffffffffffffffffffffffff16815260200190815260200160002081600019169055507f018508ba021a05e14cc176033b5ddcb38411cca484b60ab9f797f8469b90f0153382604051808373ffffffffffffffffffffffffffffffffffffffff1673ffffffffffffffffffffffffffffffffffffffff16815260200182600019166000191681526020019250505060405180910390a150565b6000809054906101000a900473ffffffffffffffffffffffffffffffffffffffff1681565b60008160001916600260008573ffffffffffffffffffffffffffffffffffffffff1673ffffffffffffffffffffffffffffffffffffffff16815260200190815260200160002054600019161415610535576001905061053a565b600090505b92915050565b60008160001916600160008573ffffffffffffffffffffffffffffffffffffffff1673ffffffffffffffffffffffffffffffffffffffff1681526020019081526020016000205460001916141561059a576001905061059f565b600090505b92915050565b6000809054906101000a900473ffffffffffffffffffffffffffffffffffffffff1673ffffffffffffffffffffffffffffffffffffffff163373ffffffffffffffffffffffffffffffffffffffff1614151561060057600080fd5b600073ffffffffffffffffffffffffffffffffffffffff168173ffffffffffffffffffffffffffffffffffffffff161415151561063c57600080fd5b8073ffffffffffffffffffffffffffffffffffffffff166000809054906101000a900473ffffffffffffffffffffffffffffffffffffffff1673ffffffffffffffffffffffffffffffffffffffff167f8be0079c531659141344cd1fd0a4f28419497f9722a3daafe3b4186f6b6457e060405160405180910390a3806000806101000a81548173ffffffffffffffffffffffffffffffffffffffff021916908373ffffffffffffffffffffffffffffffffffffffff160217905550505600a165627a7a72305820699273a4cb390e3347e6066ca4805c13a35ae80f97e7b9a31cbdfcb751d1a5830029",
    "source": "pragma solidity ^0.4.19;\n\nimport \"zeppelin-solidity/contracts/ownership/Ownable.sol\";\n\ncontract KYCValidations is Ownable {\n\n    mapping(address => bytes32) pendingOwnerships;\n    mapping(address => bytes32) ownerships;\n    \n    event OwnershipProcessStarted(address ownedAddress, bytes32 idHash);\n    event OwnershipEstablished(address ownedAddress, bytes32 idHash);\n\n\n    function addPendingOwnership(address ownedAddress, bytes32 idHash) public onlyOwner {\n        require(pendingOwnerships[ownedAddress] == 0);\n        pendingOwnerships[ownedAddress] = idHash;\n        emit OwnershipProcessStarted(ownedAddress, idHash);\n    }\n\n    function confirmOwnership(bytes32 idHash) public {\n        require(pendingOwnerships[msg.sender] == idHash);\n        ownerships[msg.sender] = idHash;\n        emit OwnershipEstablished(msg.sender, idHash);\n    }\n\n    function checkOwnership(address ownedAddress, bytes32 idHash) public view returns (bool) {\n        if(ownerships[ownedAddress] == idHash) {\n            return true;\n        }\n        return false;\n    }\n\n    function checkPendingOwnership(address ownedAddress, bytes32 idHash) public view returns (bool) {\n        if(pendingOwnerships[ownedAddress] == idHash) {\n            return true;\n        }\n        return false;\n    }\n}",
    "sourcePath": "/Users/bartek/Documents/ethworks_boilerplate/contracts/KYCValidations.sol",
    "compiler": {
        "name": "solc",
        "version": "0.4.21+commit.dfe3193c.Emscripten.clang"
    },
    "schemaVersion": "2.0.0",
    "updatedAt": "2018-06-16T16:06:16.589Z"
}